{
  "fileName": "Token.sol",
  "contractName": "Token",
  "source": "pragma solidity ^0.6.0;\nimport \"@openzeppelin/upgrades/contracts/Initializable.sol\";\ncontract Token is Initializable{\n    string _name;\n    string _symbol;\n    //bool private _initialized=false;\n    address _owner;\n    uint256[] allTokens;\n    mapping(address=>uint256) _balance;\n    mapping(address=>uint256[]) _ownerof;\n    mapping(uint256=>address) _rightowner;\n    mapping(address=>uint256) noOftokens;\n    mapping(address=> mapping(address=>uint256)) _allownce;\n    function initialize() public initializer{\n        \n        _name=\"Armughan\";\n        _symbol=\"armu\";\n        _owner=msg.sender;\n    }\n    function balanceOf(address addr) public view returns(uint256){\n        return _balance[addr];\n    }\n    function ownerOf(uint256 tokenId)public view returns (address){\n        return _rightowner[tokenId];\n    }\n\n    function mint(uint256 tokenId) public {\n        require(_rightowner[tokenId]==address(0));\n        mintHelper(msg.sender,tokenId);\n    }\n    function mintHelper(address owner,uint256 tokenId) internal{\n        _rightowner[tokenId]=owner;\n        _balance[owner]=noOftokens[owner]+1;\n    }\n    function transferFrom(address from, address to, uint256 tokenId) public{\n        require(_rightowner[tokenId]==from,\"Not the Owner\");\n        require(to!=address(0),\"address zero\");\n        require(_allownce[from][to]==tokenId,\"Not the allowed tokenId\");\n        _rightowner[tokenId]=to;\n        _balance[from]=noOftokens[from]-1;\n        _balance[to]=noOftokens[to]+1;\n    }\n    function approve(address to,uint256 tokenId) external{\n        address owner=_rightowner[tokenId];\n        require(to!=owner);\n        require(msg.sender==owner);\n        ApproveHelper(msg.sender,to,tokenId);\n    }\n    function ApproveHelper(address _sender,address _spender,uint256 tokenId) public{\n        _allownce[_sender][_spender]=tokenId;\n    }\n    function Transfer(address from, address to, uint256 tokenId) public{\n        require(_rightowner[tokenId]==from,\"Not the Owner\");\n        require(to!=address(0),\"address zero\");\n        _rightowner[tokenId]=to;\n        _balance[from]=noOftokens[from]-1;\n        _balance[to]=noOftokens[to]+1;\n    }\n    function burn(address owner,uint256 tokenId) public{\n        require(owner==_rightowner[tokenId],\"nothing to burn\");\n        _rightowner[tokenId]=address(0);\n        _balance[owner]=noOftokens[owner]-1;\n    }\n}",
  "sourcePath": "contracts/Token.sol",
  "abi": [
    {
      "inputs": [
        {
          "internalType": "address",
          "name": "_sender",
          "type": "address"
        },
        {
          "internalType": "address",
          "name": "_spender",
          "type": "address"
        },
        {
          "internalType": "uint256",
          "name": "tokenId",
          "type": "uint256"
        }
      ],
      "name": "ApproveHelper",
      "outputs": [],
      "stateMutability": "nonpayable",
      "type": "function"
    },
    {
      "inputs": [
        {
          "internalType": "address",
          "name": "from",
          "type": "address"
        },
        {
          "internalType": "address",
          "name": "to",
          "type": "address"
        },
        {
          "internalType": "uint256",
          "name": "tokenId",
          "type": "uint256"
        }
      ],
      "name": "Transfer",
      "outputs": [],
      "stateMutability": "nonpayable",
      "type": "function"
    },
    {
      "inputs": [
        {
          "internalType": "address",
          "name": "to",
          "type": "address"
        },
        {
          "internalType": "uint256",
          "name": "tokenId",
          "type": "uint256"
        }
      ],
      "name": "approve",
      "outputs": [],
      "stateMutability": "nonpayable",
      "type": "function"
    },
    {
      "inputs": [
        {
          "internalType": "address",
          "name": "addr",
          "type": "address"
        }
      ],
      "name": "balanceOf",
      "outputs": [
        {
          "internalType": "uint256",
          "name": "",
          "type": "uint256"
        }
      ],
      "stateMutability": "view",
      "type": "function"
    },
    {
      "inputs": [
        {
          "internalType": "address",
          "name": "owner",
          "type": "address"
        },
        {
          "internalType": "uint256",
          "name": "tokenId",
          "type": "uint256"
        }
      ],
      "name": "burn",
      "outputs": [],
      "stateMutability": "nonpayable",
      "type": "function"
    },
    {
      "inputs": [],
      "name": "initialize",
      "outputs": [],
      "stateMutability": "nonpayable",
      "type": "function"
    },
    {
      "inputs": [
        {
          "internalType": "uint256",
          "name": "tokenId",
          "type": "uint256"
        }
      ],
      "name": "mint",
      "outputs": [],
      "stateMutability": "nonpayable",
      "type": "function"
    },
    {
      "inputs": [
        {
          "internalType": "uint256",
          "name": "tokenId",
          "type": "uint256"
        }
      ],
      "name": "ownerOf",
      "outputs": [
        {
          "internalType": "address",
          "name": "",
          "type": "address"
        }
      ],
      "stateMutability": "view",
      "type": "function"
    },
    {
      "inputs": [
        {
          "internalType": "address",
          "name": "from",
          "type": "address"
        },
        {
          "internalType": "address",
          "name": "to",
          "type": "address"
        },
        {
          "internalType": "uint256",
          "name": "tokenId",
          "type": "uint256"
        }
      ],
      "name": "transferFrom",
      "outputs": [],
      "stateMutability": "nonpayable",
      "type": "function"
    }
  ],
  "bytecode": "0x608060405234801561001057600080fd5b506111e4806100206000396000f3fe608060405234801561001057600080fd5b50600436106100935760003560e01c80638129fc1c116100665780638129fc1c1461021a5780639dc29fac14610224578063a0712d6814610272578063cb66a6d5146102a0578063ddf252ad1461030e57610093565b8063095ea7b31461009857806323b872dd146100e65780636352211e1461015457806370a08231146101c2575b600080fd5b6100e4600480360360408110156100ae57600080fd5b81019080803573ffffffffffffffffffffffffffffffffffffffff1690602001909291908035906020019092919050505061037c565b005b610152600480360360608110156100fc57600080fd5b81019080803573ffffffffffffffffffffffffffffffffffffffff169060200190929190803573ffffffffffffffffffffffffffffffffffffffff16906020019092919080359060200190929190505050610435565b005b6101806004803603602081101561016a57600080fd5b8101908080359060200190929190505050610800565b604051808273ffffffffffffffffffffffffffffffffffffffff1673ffffffffffffffffffffffffffffffffffffffff16815260200191505060405180910390f35b610204600480360360208110156101d857600080fd5b81019080803573ffffffffffffffffffffffffffffffffffffffff16906020019092919050505061083d565b6040518082815260200191505060405180910390f35b610222610886565b005b6102706004803603604081101561023a57600080fd5b81019080803573ffffffffffffffffffffffffffffffffffffffff16906020019092919080359060200190929190505050610a5e565b005b61029e6004803603602081101561028857600080fd5b8101908080359060200190929190505050610c0f565b005b61030c600480360360608110156102b657600080fd5b81019080803573ffffffffffffffffffffffffffffffffffffffff169060200190929190803573ffffffffffffffffffffffffffffffffffffffff16906020019092919080359060200190929190505050610c88565b005b61037a6004803603606081101561032457600080fd5b81019080803573ffffffffffffffffffffffffffffffffffffffff169060200190929190803573ffffffffffffffffffffffffffffffffffffffff16906020019092919080359060200190929190505050610d0e565b005b60006039600083815260200190815260200160002060009054906101000a900473ffffffffffffffffffffffffffffffffffffffff1690508073ffffffffffffffffffffffffffffffffffffffff168373ffffffffffffffffffffffffffffffffffffffff1614156103ed57600080fd5b8073ffffffffffffffffffffffffffffffffffffffff163373ffffffffffffffffffffffffffffffffffffffff161461042557600080fd5b610430338484610c88565b505050565b8273ffffffffffffffffffffffffffffffffffffffff166039600083815260200190815260200160002060009054906101000a900473ffffffffffffffffffffffffffffffffffffffff1673ffffffffffffffffffffffffffffffffffffffff1614610509576040517f08c379a000000000000000000000000000000000000000000000000000000000815260040180806020018281038252600d8152602001807f4e6f7420746865204f776e65720000000000000000000000000000000000000081525060200191505060405180910390fd5b600073ffffffffffffffffffffffffffffffffffffffff168273ffffffffffffffffffffffffffffffffffffffff1614156105ac576040517f08c379a000000000000000000000000000000000000000000000000000000000815260040180806020018281038252600c8152602001807f61646472657373207a65726f000000000000000000000000000000000000000081525060200191505060405180910390fd5b80603b60008573ffffffffffffffffffffffffffffffffffffffff1673ffffffffffffffffffffffffffffffffffffffff16815260200190815260200160002060008473ffffffffffffffffffffffffffffffffffffffff1673ffffffffffffffffffffffffffffffffffffffff168152602001908152602001600020541461069d576040517f08c379a00000000000000000000000000000000000000000000000000000000081526004018080602001828103825260178152602001807f4e6f742074686520616c6c6f77656420746f6b656e496400000000000000000081525060200191505060405180910390fd5b816039600083815260200190815260200160002060006101000a81548173ffffffffffffffffffffffffffffffffffffffff021916908373ffffffffffffffffffffffffffffffffffffffff1602179055506001603a60008573ffffffffffffffffffffffffffffffffffffffff1673ffffffffffffffffffffffffffffffffffffffff1681526020019081526020016000205403603760008573ffffffffffffffffffffffffffffffffffffffff1673ffffffffffffffffffffffffffffffffffffffff168152602001908152602001600020819055506001603a60008473ffffffffffffffffffffffffffffffffffffffff1673ffffffffffffffffffffffffffffffffffffffff1681526020019081526020016000205401603760008473ffffffffffffffffffffffffffffffffffffffff1673ffffffffffffffffffffffffffffffffffffffff16815260200190815260200160002081905550505050565b60006039600083815260200190815260200160002060009054906101000a900473ffffffffffffffffffffffffffffffffffffffff169050919050565b6000603760008373ffffffffffffffffffffffffffffffffffffffff1673ffffffffffffffffffffffffffffffffffffffff168152602001908152602001600020549050919050565b600060019054906101000a900460ff16806108a557506108a4610fe8565b5b806108bc57506000809054906101000a900460ff16155b610911576040517f08c379a000000000000000000000000000000000000000000000000000000000815260040180806020018281038252602e815260200180611181602e913960400191505060405180910390fd5b60008060019054906101000a900460ff161590508015610961576001600060016101000a81548160ff02191690831515021790555060016000806101000a81548160ff0219169083151502179055505b6040518060400160405280600881526020017f41726d756768616e000000000000000000000000000000000000000000000000815250603390805190602001906109ac9291906110db565b506040518060400160405280600481526020017f61726d7500000000000000000000000000000000000000000000000000000000815250603490805190602001906109f89291906110db565b5033603560006101000a81548173ffffffffffffffffffffffffffffffffffffffff021916908373ffffffffffffffffffffffffffffffffffffffff1602179055508015610a5b5760008060016101000a81548160ff0219169083151502179055505b50565b6039600082815260200190815260200160002060009054906101000a900473ffffffffffffffffffffffffffffffffffffffff1673ffffffffffffffffffffffffffffffffffffffff168273ffffffffffffffffffffffffffffffffffffffff1614610b32576040517f08c379a000000000000000000000000000000000000000000000000000000000815260040180806020018281038252600f8152602001807f6e6f7468696e6720746f206275726e000000000000000000000000000000000081525060200191505060405180910390fd5b60006039600083815260200190815260200160002060006101000a81548173ffffffffffffffffffffffffffffffffffffffff021916908373ffffffffffffffffffffffffffffffffffffffff1602179055506001603a60008473ffffffffffffffffffffffffffffffffffffffff1673ffffffffffffffffffffffffffffffffffffffff1681526020019081526020016000205403603760008473ffffffffffffffffffffffffffffffffffffffff1673ffffffffffffffffffffffffffffffffffffffff168152602001908152602001600020819055505050565b600073ffffffffffffffffffffffffffffffffffffffff166039600083815260200190815260200160002060009054906101000a900473ffffffffffffffffffffffffffffffffffffffff1673ffffffffffffffffffffffffffffffffffffffff1614610c7b57600080fd5b610c853382610fff565b50565b80603b60008573ffffffffffffffffffffffffffffffffffffffff1673ffffffffffffffffffffffffffffffffffffffff16815260200190815260200160002060008473ffffffffffffffffffffffffffffffffffffffff1673ffffffffffffffffffffffffffffffffffffffff16815260200190815260200160002081905550505050565b8273ffffffffffffffffffffffffffffffffffffffff166039600083815260200190815260200160002060009054906101000a900473ffffffffffffffffffffffffffffffffffffffff1673ffffffffffffffffffffffffffffffffffffffff1614610de2576040517f08c379a000000000000000000000000000000000000000000000000000000000815260040180806020018281038252600d8152602001807f4e6f7420746865204f776e65720000000000000000000000000000000000000081525060200191505060405180910390fd5b600073ffffffffffffffffffffffffffffffffffffffff168273ffffffffffffffffffffffffffffffffffffffff161415610e85576040517f08c379a000000000000000000000000000000000000000000000000000000000815260040180806020018281038252600c8152602001807f61646472657373207a65726f000000000000000000000000000000000000000081525060200191505060405180910390fd5b816039600083815260200190815260200160002060006101000a81548173ffffffffffffffffffffffffffffffffffffffff021916908373ffffffffffffffffffffffffffffffffffffffff1602179055506001603a60008573ffffffffffffffffffffffffffffffffffffffff1673ffffffffffffffffffffffffffffffffffffffff1681526020019081526020016000205403603760008573ffffffffffffffffffffffffffffffffffffffff1673ffffffffffffffffffffffffffffffffffffffff168152602001908152602001600020819055506001603a60008473ffffffffffffffffffffffffffffffffffffffff1673ffffffffffffffffffffffffffffffffffffffff1681526020019081526020016000205401603760008473ffffffffffffffffffffffffffffffffffffffff1673ffffffffffffffffffffffffffffffffffffffff16815260200190815260200160002081905550505050565b6000803090506000813b9050600081149250505090565b816039600083815260200190815260200160002060006101000a81548173ffffffffffffffffffffffffffffffffffffffff021916908373ffffffffffffffffffffffffffffffffffffffff1602179055506001603a60008473ffffffffffffffffffffffffffffffffffffffff1673ffffffffffffffffffffffffffffffffffffffff1681526020019081526020016000205401603760008473ffffffffffffffffffffffffffffffffffffffff1673ffffffffffffffffffffffffffffffffffffffff168152602001908152602001600020819055505050565b828054600181600116156101000203166002900490600052602060002090601f016020900481019282601f1061111c57805160ff191683800117855561114a565b8280016001018555821561114a579182015b8281111561114957825182559160200191906001019061112e565b5b509050611157919061115b565b5090565b61117d91905b80821115611179576000816000905550600101611161565b5090565b9056fe436f6e747261637420696e7374616e63652068617320616c7265616479206265656e20696e697469616c697a6564a2646970667358221220756f885adf63a1e14175c9c143e032a08b5bca34f441080a8e82b885750c473b64736f6c63430006000033",
  "compiler": {
    "name": "solc",
    "version": "0.6.0+commit.26b70077.Emscripten.clang",
    "optimizer": {
      "enabled": false,
      "runs": 200
    },
    "evmVersion": "petersburg"
  }
}